:400000000080002011000000151B0000151B000080B500AF024A034B1B68136001F0A8FDBC760040FA46004010B5054C237833B9044B13B10448AFF300800123237010BD11
:400040008881FF1F0000000014360000084B10B51BB108480849AFF300800848036803B910BD074B002BFBD0BDE81040184700BF00000000143600008C81FF1F0881FF1FAD
:400080000000000080B5ADF5096D02AF02F00CFA812002F067FA07F5B16318463F2100F073F807F5B163184600F0E0F93A1D01230093104604210322012300F015FE07F525
:4000C000B1623B1D03F284431046194600F0B2F907F5B16318461A211022302300F0ACF807F5B163184600F0C1F907F5B1613A1D00230093084611460022002301F0C8FCF5
:4001000007F5B163184600F0B1F907F5B1613A1D00230093084611460022002301F0B8FC07F5B163184600F0A1F907F5B1613A1D00230093084611460022002301F0A8FC7B
:4001400007F5B163184600F091F907F5B1613A1D00230093084611460022002301F098FC07F5B163184600F081F901F0DFFF012002F058F80020002101F0E8FF014802F0AF
:400180001BF8FEE71836000080B485B000AF78600B46FB700023FB6016E00023BB600DE07968FA6813465B001344DB00BA6813440B44FA781A70BB680133BB60BB68172BEA
:4001C000EEDDFB680133FB60FB681F2BE5DD1437BD465DF8047B704780B487B000AFF860B9607A603B60BB687B611AE07B683B610EE0F9687A6913465B001344DB003A69C7
:4002000013440B4497F824201A703B6901333B617A683B6A1A443B699A42EADC7B6901337B61BA683B681A447B699A42DEDC1C37BD465DF8047B704780B586B002AFF86036
:40024000B9607A60FB7001230093FB780193F868B9687A680523FFF7BFFFBB68991C7B685A1C06230093FB780193F8680123FFF7B3FFBB68D91C7B68DA1C01230093FB78E8
:400280000193F8680223FFF7A7FFBB681A1D7B68181DF96813465B001344DB0003440B44FA781A701037BD4680BD00BF80B588B002AFF860B9607A60BB680F2B1DDCBB6816
:4002C000002B1ADBBA68594B1340002B03DA013B63F0030301337B61BA687B69D31A002B00DA03339B103B617B695B0001337B613B695B0001333B6161E0BB681F2B1DDCDE
:40030000BB68103BBB60BA68484B1340002B03DA013B63F0030301337B61BA687B69D31A002B00DA03339B103B617B695B0001337B613B695B000B333B6140E0BB682F2B45
:400340001DDCBB68203BBB60BA68384B1340002B03DA013B63F0030301337B61BA687B69D31A002B00DA03339B103B617B695B000D337B613B6902335B003B611FE0BB6884
:400380003F2B1CDCBB68303BBB60BA68274B1340002B03DA013B63F0030301337B61BA687B69D31A002B00DA03339B103B617B695B000D337B613B6907335B003B617B6816
:4003C000002B14D1BA681A4B83FB0231D317C91A0B465B000B44D11ACBB2022200920193F86879693A690223FFF7F6FE1BE07B68012B0AD1022300932A230193F868796987
:400400003A690223FFF7E8FE0DE07B68B3F1FF3F09D10223009315230193F86879693A690223FFF7D9FE1837BD4680BD030000805655555580B584B000AF7860396000231E
:40044000FB600CE0FB689B003A6813441B687868F9681A46FFF72AFFFB680133FB60FB683F2BEFDD1037BD4680BD00BF80B584B000AF78600023BB6018E00023FB600FE097
:400480007968FA6813465B001344DB00BA6813440B441B78184602F065F8FB680133FB60FB681F2BECDDBB680133BB60BB68172BE3DD072000F004F81037BD4680BD00BFB3
:4004C00080B485B000AF78600023FB600FE00023BB6002E0BB680133BB607B68642202FB03F2BB689A42F5DCFB680133FB607A6813469B0013445B001A46FB689A42E6DC07
:400500001437BD465DF8047B704700BF80B487B000AFF860B9607A60FB68BA681A60FB687A685A607B68032B18D1BB68BA6802FB03F3BA6802FB03F33B6100237B6109E0F5
:40054000FA687B6904339B00134400225A607B6901337B617A693B699A42F1DBFB6801229A60FB6800221A61FB680122DA601C37BD465DF8047B704780B487B000AFF8607A
:40058000B9607A603B603B689A007B6813449A00BB6813447B61FA687B6904339B0013443A6A5A60012318461C37BD465DF8047B704700BF80B487B000AFF860B9607A60F2
:4005C0003B603B689A007B6813449A00BB6813447B61FA687B6904339B0013445B683B613B6918461C37BD465DF8047B704700BF80B586B000AFF860B9607A603B603B68E6
:400600009A007B6813449A00BB6813447B61BB68002B05DB7B68002B02DB3B68002B07DA1948B9687A683B6802F0BAF8002327E0FB681A68BB689A4209DDFB681A687B68C7
:400640009A4204DDFB681A683B689A4207DC0E48B9687A683B6802F0A3F8002310E0FA687B6904339B0013445B68002B07D00748B9687A683B6802F093F8002300E001230D
:4006800018461837BD4680BD243600003C36000080B483B000AF78607B689B68012B04D17B684FF0FF329A6007E07B689B68B3F1FF3F02D17B6801229A607B68DB685A1C41
:4006C0007B68DA600C37BD465DF8047B704700BF80B588B000AF78607B689B688948194602F05EF800237B6184E10023BB6128E00023FB600023FB610CE07868F969BA6902
:400700007B69FFF757FF0246FB681344FB60FB690133FB617B681A68FB699A42EDDC7B689B687A68126802FB03F2FB689A4205D17B689A687B681A61012303E2BB690133DD
:40074000BB617B681A68BB699A42D1DC0023FB6128E00023FB600023BB610CE07868F969BA697B69FFF726FF0246FB681344FB60BB690133BB617B681A68BB699A42EDDCB8
:400780007B689B687A68126802FB03F2FB689A4205D17B689A687B681A610123D2E1FB690133FB617B681A68FB699A42D1DC0023FB6128E00023FB6000233B610CE0786800
:4007C000F9697A693B69FFF7F5FE0246FB681344FB603B6901333B617B681A683B699A42EDDC7B689B687A68126802FB03F2FB689A4205D17B689A687B681A610123A1E176
:40080000FB690133FB617B681A68FB699A42D1DC0023FB6000233B610CE0786879693A693B69FFF7C7FE0246FB681344FB603B6901333B617B681A683B699A42EDDC7B6823
:400840009B687A68126802FB03F2FB689A4205D17B689A687B681A61012373E10023FB6000233B610FE03B69C3F10303786879691A463B69FFF79EFE0246FB681344FB6018
:400880003B6901333B617B681A683B699A42EADC7B689B687A68126802FB03F2FB689A4205D17B689A687B681A6101234AE10023FB6000233B610CE0786839697A693B690C
:4008C000FFF778FE0246FB681344FB603B6901333B617B681A683B699A42EDDC7B689B687A68126802FB03F2FB689A4205D17B689A687B681A61012324E10023FB600023B7
:400900003B6111E0AC3600007B69C3F10303786819467A693B69FFF74DFE0246FB681344FB603B6901333B617B681A683B699A42EADC7B689B687A68126802FB03F2FB6890
:400940009A4205D17B689A687B681A610123F9E00023FB6000233B610CE0786839693A697B69FFF727FE0246FB681344FB603B6901333B617B681A683B699A42EDDC7B68D6
:400980009B687A68126802FB03F2FB689A4205D17B689A687B681A610123D3E00023FB6000233B610FE03B69C3F10303786839691A467B69FFF7FEFD0246FB681344FB6019
:4009C0003B6901333B617B681A683B699A42EADC7B689B687A68126802FB03F2FB689A4205D17B689A687B681A610123AAE07B6901337B617B681A687B699A423FF775AE2C
:400A00000023FB6000233B610CE0786839693A693B69FFF7CFFD0246FB681344FB603B6901333B617B681A683B699A42EDDC7B689B687A68126802FB03F2FB689A4205D13A
:400A40007B689A687B681A6101237BE00023FB6000233B610FE03B69C3F10303786839691A463B69FFF7A6FD0246FB681344FB603B6901333B617B681A683B699A42EADC8F
:400A80007B689B687A68126802FB03F2FB689A4205D17B689A687B681A61012352E00023FB6000233B610EE03B69C3F10303786839693A69FFF77EFD0246FB681344FB60D8
:400AC0003B6901333B617B681A683B699A42EBDC7B689B687A68126802FB03F2FB689A4205D17B689A687B681A6101232AE00023FB6000233B6110E03B69C3F103023B69EE
:400B0000C3F1030378683969FFF754FD0246FB681344FB603B6901333B617B681A683B699A42E9DC7B689B687A68126802FB03F2FB689A4205D17B689A687B681A61012307
:400B400000E0002318462037BD4680BD90B587B002AFF860B9607A603B60B86879683A683B6AFFF745FD0346012B23D1BB689B680093B86879683A683B6AFFF7FDFCB86871
:400B8000FFF7A6FDB868FFF783FD3B6A9A003B6813449A007B68D418B86879683A683B6AFFF708FD0346F86821461A46FFF77EFB012300E0002318461437BD4690BD00BF63
:400BC00080B586B000AF7860396000233B613B689B00184601F026FD0346BB600123FB6000237B612DE07B699B007A6813441A683B699A4211DD7B699B007A6813441B6829
:400C00003B61FB68B86800211A4601F026FD7A69BB681A600123FB6010E07B699B007A6813441A683B699A4208D1FB689B00BA6813447A691A60FB680133FB607B690133A0
:400C40007B617A693B689A42CDD3FB68012B03D1BB681B68FB6017E0002001F03FFE0346184601F0C9FD01F0EFFD0346FA6893FBF2F2F96801FB02F29B1A3B613B699B00B4
:400C8000BA6813441B68FB60B86801F0D3FCFB6818461837BD4680BD80B582B000AF78607B680433184600214FF4807201F0D5FC7B6803F58273184600214FF4987201F0A2
:400CC000CCFC0837BD4680BD80B584B000AFF860B9607A603B60FB68BA681A60F868FFF7DBFF1037BD4680BD80B584B000AFF860B9607A603B60FB6803F58E631846B96830
:400D00007A68FFF703FC3B68012B0BD1FB68083318460121BA687B68FFF7D6FFFB6801221A6002E0FB6800221A60BB69012B0DD1FB6803F50F7318464FF0FF31BA687B6885
:400D4000FFF7C2FFFB6801225A6002E0FB6800225A601037BD4680BD90B58DB000AF786039603868FFF798FF00237B6267E30023BB625DE00023FB610023BB6107F108037D
:400D800018460021102201F068FC0023FB622AE03B681C687868F96ABA6A7B6AFFF70AFC034603FB04F3FA691344FB617868F96ABA6A7B6AFFF7FEFB0346002B10D17B6A6B
:400DC0009A00BB6A13449A00FB6A1A44BB699B0007F130010B4443F8282CBB690133BB61FB6A0133FB627B681A68FB6A9A42CFDC7B681A68FB699A4206D17B689A687B68BB
:400E00001A61012300F0A7BCFB6983EAE372A2EBE372BB69C3F104039A4206D107F108033868F9691A4600F09BFCBB6A0133BB627B681A68BB6A9A429CDC0023FB625DE029
:400E40000023FB610023BB6107F1080318460021102201F002FC0023BB622AE03B681C687868F96ABA6A7B6AFFF7A4FB034603FB04F3FA691344FB617868F96ABA6A7B6A1F
:400E8000FFF798FB0346002B10D17B6A9A00BB6A13449A00FB6A1A44BB699B0007F130010B4443F8282CBB690133BB61BB6A0133BB627B681A68BB6A9A42CFDC7B681A68D6
:400EC000FB699A4206D17B689A687B681A61012300F041BCFB6983EAE372A2EBE372BB69C3F104039A4206D107F108033868F9691A4600F035FCFB6A0133FB627B681A680C
:400F0000FB6A9A429CDC0023FB625CE00023FB610023BB6107F1080318460021102201F09CFB00233B622AE03B681C687868F96A7A6A3B6AFFF73EFB034603FB04F3FA69B5
:400F40001344FB617868F96A7A6A3B6AFFF732FB0346002B10D13B6A9A007B6A13449A00FB6A1A44BB699B0007F130010B4443F8282CBB690133BB613B6A01333B627B680F
:400F80001A683B6A9A42CFDC7B681A68FB699A4205D17B689A687B681A610123DBE3FB6983EAE372A2EBE372BB69C3F104039A4206D107F108033868F9691A4600F0D0FB29
:400FC000FB6A0133FB627B681A68FB6A9A429DDC0023FB610023BB6107F1080318460021102201F03AFB00233B622AE03B681C687868396A3A6A7B6AFFF7DCFA034603FB34
:4010000004F3FA691344FB617868396A3A6A7B6AFFF7D0FA0346002B10D17B6A9A003B6A13449A003B6A1A44BB699B0007F130010B4443F8282CBB690133BB613B6A013357
:401040003B627B681A683B6A9A42CFDC7B681A68FB699A4205D17B689A687B681A61012379E3FB6983EAE372A2EBE372BB69C3F104039A4206D107F108033868F9691A4605
:4010800000F06EFB0023FB610023BB6107F1080318460021102201F0E0FA00233B6232E03B681C683B6AC3F103037868396A1A467B6AFFF77FFA034603FB04F3FA69134413
:4010C000FB613B6AC3F103037868396A1A467B6AFFF770FA0346002B12D17B6A9A003B6AC3F1030313449A003B6A1A44BB699B0007F130010B4443F8282CBB690133BB61AA
:401100003B6A01333B627B681A683B6A9A42C7DC7B681A68FB699A4205D17B689A687B681A61012317E3FB6983EAE372A2EBE372BB69C3F104039A4206D107F10803386897
:40114000F9691A4600F00CFB0023FB610023BB6107F1080318460021102201F07EFA00233B622AE03B681C687868796A3A6A3B6AFFF720FA034603FB04F3FA691344FB617A
:401180007868796A3A6A3B6AFFF714FA0346002B10D13B6A9A007B6A1A443B6A1B011A44BB699B0007F130010B4443F8282CBB690133BB613B6A01333B627B681A683B6A6F
:4011C0009A42CFDC7B681A68FB699A4205D17B689A687B681A610123BDE2FB6983EAE372A2EBE372BB69C3F104039A4206D107F108033868F9691A4600F0B2FA0023FB61CD
:401200000023BB6107F1080318460021102201F024FA00233B6232E03B681C683B6AC3F103037868796A1A463B6AFFF7C3F9034603FB04F3FA691344FB613B6AC3F1030327
:401240007868796A1A463B6AFFF7B4F90346002B12D13B6AC3F103039A007B6A1A443B6A1B011A44BB699B0007F130010B4443F8282CBB690133BB613B6A01333B627B68BE
:401280001A683B6A9A42C7DC7B681A68FB699A4205D17B689A687B681A6101235BE2FB6983EAE372A2EBE372BB69C3F104039A4206D107F108033868F9691A4600F050FA30
:4012C0000023FB610023BB6107F1080318460021102201F0C2F900233B622AE03B681C687868396A7A6A3B6AFFF764F9034603FB04F3FA691344FB617868396A7A6A3B6A20
:40130000FFF758F90346002B10D17B6A9A003B6A1A443B6A1B011A44BB699B0007F130010B4443F8282CBB690133BB613B6A01333B627B681A683B6A9A42CFDC7B681A68CA
:40134000FB699A4205D17B689A687B681A61012301E2FB6983EAE372A2EBE372BB69C3F104039A4206D107F108033868F9691A4600F0F6F90023FB610023BB6107F108036E
:4013800018460021102201F068F900233B6232E03B681C683B6AC3F10303786819467A6A3B6AFFF707F9034603FB04F3FA691344FB613B6AC3F10303786819467A6A3B6A99
:4013C000FFF7F8F80346002B12D13B6AC3F103027B6A9B001A443B6A1B011A44BB699B0007F130010B4443F8282CBB690133BB613B6A01333B627B681A683B6A9A42C7DC1C
:401400007B681A68FB699A4205D17B689A687B681A6101239FE1FB6983EAE372A2EBE372BB69C3F104039A4206D107F108033868F9691A4600F094F97B6A01337B627B68F5
:401440001A687B6A9A423FF792AC0023FB610023BB6107F1080318460021102201F0FDF800233B6229E03B681C687868396A3A6A3B6AFFF79FF8034603FB04F3FA6913441C
:40148000FB617868396A3A6A3B6AFFF793F80346002B0FD13A6A13465B001344DA00D21ABB699B0007F130010B4443F8282CBB690133BB613B6A01333B627B681A683B6A00
:4014C0009A42D0DC7B681A68FB699A4205D17B689A687B681A6101233DE1FB6983EAE372A2EBE372BB69C3F104039A4206D107F108033868F9691A4600F032F90023FB61CB
:401500000023BB6107F1080318460021102201F0A4F800233B6232E03B681C683B6AC3F10303786819463A6A3B6AFFF743F8034603FB04F3FA691344FB613B6AC3F1030367
:40154000786819463A6A3B6AFFF734F80346002B12D13B6AC3F103023B6A9B001A443B6A1B011A44BB699B0007F130010B4443F8282CBB690133BB613B6A01333B627B68BC
:401580001A683B6A9A42C7DC7B681A68FB699A4205D17B689A687B681A610123DBE0FB6983EAE372A2EBE372BB69C3F104039A4206D107F108033868F9691A4600F0D0F831
:4015C0000023FB610023BB6107F1080318460021102201F042F800233B6238E03B681C683B6AC3F103023B6AC3F10303786811461A463B6AFEF7DEFF034603FB04F3FA69E3
:401600001344FB613B6AC3F103023B6AC3F10303786811461A463B6AFEF7CCFF0346002B12D13B6AC3F1030213469B001A443B6A1B011A44BB699B0007F130010B4443F8A6
:40164000282CBB690133BB613B6A01333B627B681A683B6A9A42C1DC7B681A68FB699A4205D17B689A687B681A61012373E0FB6983EAE372A2EBE372BB69C3F104039A42B1
:4016800006D107F108033868F9691A4600F068F80023FB610023BB6107F1080318460021102200F0DAFF00233B6232E03B681C683B6AC3F103037868396A1A463B6AFEF78E
:4016C00079FF034603FB04F3FA691344FB613B6AC3F103037868396A1A463B6AFEF76AFF0346002B12D13B6AC3F103039A003B6A1A443B6A1B011A44BB699B0007F130017F
:401700000B4443F8282CBB690133BB613B6A01333B627B681A683B6A9A42C7DC7B681A68FB699A4205D17B689A687B681A61012311E0FB6983EAE372A2EBE372BB69C3F1A5
:4017400004039A4206D107F108033868F9691A4600F006F8002318463437BD4690BD00BF80B485B000AFF860B9607A60BB68032B0FD17B6818687B681B68FA689B001344B0
:401780005B6803F5C332A032F96883000B445A60DEE0BB6813F1030F0FD17B6818687B681B68FA689B0013445B6803F59C520832F96883000B445A60CAE0BB68002BB8BF87
:4017C0005B42022B1ED17B6818687B681B68FA689B0013445B6803F1C802F96883000B445A607B68043318687B6804331B68FA689B0013445B6803F1C802F96883000B4466
:401800005A60A5E0BB68012B2ED17B6818687B681B68FA689B0013445B6803F13202F96883000B445A607B68043318687B6804331B68FA689B0013445B6803F13202F9684F
:4018400083000B445A607B68083318687B6808331B68FA689B0013445B6803F13202F96883000B445A6073E0BB68002B3ED17B6818687B681B68FA689B0013445B6803F1ED
:401880001E02F96883000B445A607B68043318687B6804331B68FA689B0013445B6803F11E02F96883000B445A607B68083318687B6808331B68FA689B0013445B6803F182
:4018C0001E02F96883000B445A607B680C3318687B680C331B68FA689B0013445B6803F11E02F96883000B445A6031E0BB68B3F1FF3F2DD17B6818687B681B68FA689B00A2
:4019000013445B6803F11402F96883000B445A607B68043318687B6804331B68FA689B0013445B6803F11402F96883000B445A607B68083318687B6808331B68FA689B0015
:4019400013445B6803F11402F96883000B445A60012318461437BD465DF8047B704700BF80B584B000AF78600023FB601BE0FB6803F00303002B02D10A2000F029FFFB68D4
:4019800003F00F03002B02D10A2000F021FF7A68FB689B0013445B680948194600F000FFFB680133FB60FB683F2BE0DD7B681B680448194600F0F4FE1037BD4680BD00BF9C
:4019C0008C360000CC36000080B586B000AFF860B9607A60BB68043318464021FFF7F0F87861BB681A68F9687B6904339B000B445A60BB681B68786879691A46FEF756FC1A
:401A00001837BD4680BD00BF80B584B000AFF860B9607A607B68012B18D1BB6803F58E62BB68083310461946FFF796F9BB6803F58E62BB68083310461946FA68FFF7C4FF21
:401A4000BB6808331846FFF78BFF1EE07B68B3F1FF3F1AD1BB6803F58E62BB6803F50F7310461946FFF778F9BB6803F58E62BB6803F50F7310461946FA68FFF7A5FFBB683C
:401A800003F50F731846FFF76BFF1037BD4680BD80B586B002AFF860B9607A603B60BB68D3F87834012B0FD1BB681B68012B0BD1F868B9680122FFF7A7FFBB6803F58E63C5
:401AC0001846FEF7E5FD21E0BB68D3F87834B3F1FF3F10D1BB685B68012B0CD1F868B9684FF0FF32FFF790FFBB6803F58E631846FEF7CEFD0AE0BB6803F58E62BB69009318
:401B0000F86811467A683B68FFF720F81037BD4680BD00BF80B400AFFEE700BF80B584B000AF7860104B1A687B6813441A460F4BD31AB3F5805F09DC0B4B1B68FB600A4BEB
:401B40001A687B681344084A136007E000F03EFD02460C2313604FF0FF33FB60FB6818461037BD4680BD00BF0C81FF1FB881FF1F80B586B000AF224B7B61224B3B61204B3C
:401B80007B6135E03B691B68FB603B695B68BB603B699B683B6000237B600CE0FB681A68BB681A60BB680433BB60FB680433FB607B6804337B607A683B689A42EED13B695F
:401BC000DB683B6000237B6008E0BB6800221A60BB680433BB607B6804337B607A683B689A42F2D13B6910333B617B69013B7B617B69002BC6D100F0EFFCFEF743FAFEE7BD
:401C000001000000E837000080B582B000AF174B174A1A60174A174B1B6843F40073136000237B600FE07B68032B04D8124A7B6852F8233000E0114B11497A6841F8223015
:401C40007B6801337B607B682F2BECD90D4B1B78DAB20D4B1A700D4B094A1A6000F018F90B4B00221A600837BD4680BD0CED00E00004FA0514ED00E000000000151B000093
:401C80000080FF1FBC7600400481FF1F08ED00E00081FF1F80B582B000AF78603960786800213A6800F0D9FC0837BD4680BD00BF80B584B000AFF860B9607A60F868B968EC
:401CC0007A6800F0BFFC1037BD4680BD80B483B000AF0346FB71FEE780B487B000AF7860396000233B6100237B6127E07B699B007A6813441B68BB60BB68FB73BB6823F0B3
:401D0000FF03BB6014E03B695B003A6813441B781A46BB68134419463B695B003A6813445B780B703B6901333B61FB7B013BFB73FB7B002BE7D17B6901337B617B690F2B89
:401D4000D4D91C37BD465DF8047B704780B582B000AF304B9B221A802F4B18221A702F4B02221A704FF0402308221A702C4B03221A702C4B2C4A1278D2B21A702B4B0822E6
:401D80001A802B4B41F251221A800023FB7019237B6014E0FB785B00DAB2264B1B78DBB203F00103DBB21343DBB203F00303FB704FF4F07000F034F97B68013B7B607B68E7
:401DC000002B02D0FB78032BE4D17B68002B02D10320FFF77BFF184B4FF480721A80164B07221A70154B00221A70154B48221A70114B00221A70134B02221A70124A124BA9
:401E00001B78DBB243F00103DBB213700837BD4680BD00BF80400040824000400043004000420040A146004008010049224200402042004025420040044000400640004086
:401E40000840004001400040A243004080B483B000AF0B4B1B78FB710A4AFB7903F00703DBB21370084AFB791B09DBB21370074B44221A700C37BD465DF8047B704700BF28
:401E8000CF0100496E5800406F5800407658004080B586B000AF72B64D4A4D4B1B78DBB243F00403DBB213700023FB7513E0FA7D13465B0013445B00464A13443B613B6989
:401EC0001A683B699B889BB210461946FFF7E2FEFB7D0133FB75FB7D082BE8D90023FB751CE0FA7D13469B0013445B003A4A1344FB60FB681B68BB60FB685B687B60FB68F2
:401F00001A7A5B7A1B0213437B807B88B86879681A46FFF7CDFEFB7D0133FB75FB7D002BDFD04FF090402D49FFF7D6FE2C4A2C4B1B78DBB243F00203DBB21370294A294BAC
:401F40001B78DBB243F00203DBB21370264A264B1B78DBB243F04003DBB21370234A234B1B78DBB243F01003DBB21370204821490822FFF79DFE204820490822FFF798FE0D
:401F80001F4820490822FFF793FE1F481F490A22FFF78EFE1E4A1E4B1B78DBB243F00803DBB213701B4B01221A70FFF7CFFE194B81221A70184B01221A70FFF747FF1748D2
:401FC00009490E22FFF774FE1837BD4680BD00BFE8460040E43600001C370000400000480350014013500140A0430040C2430040C2510040100300482251004018030048E2
:4020000032510040200300486051004028030048224300400048004004000840B04300400230800803D000BF01380046FCD17047EFF3108072B6704780F31088704700BF41
:4020400080B582B000AF786008E00C4B1B681846FFF7E6FF7B68A3F500437B607B68B3F5004FF2D8064B1B687A6802FB03F31846FFF7D6FF0837BD4680BD00BF1C81FF1F6F
:402080001481FF1F80B582B000AF0346FB80FB88044A127802FB03F31846FFF7C1FF0837BD4680BD1881FF1F80B500AF2820FFF7C7FF032000F0C8F90520FFF7C1FF032041
:4020C00000F0C2F90F20FFF7BBFF032000F0BCF90120FFF7B5FF022000F0B6F90520FFF7AFFF062000F09EF80E2000F09BF82C2000F098F8082000F095F8012000F092F8D0
:402100000C2000F08FF8032000F08CF80520FFF797FF80BD80B500AF0C2000F083F8024B01221A7080BD00BFA481FF1F80B500AF054B1B78002B04D1FFF7B6FF024B0122E1
:402140001A70FFF7E7FF80BDA581FF1F80B582B000AF03460A46FB711346BB71FB79032B26D801A252F823F0792100008721000095210000A3210000BB79803BDBB21846A2
:4021800000F050F815E0BB79403BDBB2184600F049F80EE0BB796C3BDBB2184600F042F807E0BB792C3BDBB2184600F03BF800E000BF0837BD4680BD80B584B000AF7860AB
:4021C0000123FB737B681B78BB730BE0BB7B184600F00EF8FB7B7A6813441B78BB73FB7B0133FB73BB7B002BF0D11037BD4680BD80B584B000AF0346FB7100F02DF8FB79AD
:402200001B09FB73FB7B184600F0E2F8FB7903F00F03FB73FB7B184600F0DAF81037BD4680BD00BF80B584B000AF0346FB7100F013F8FB791B09FB73FB7B184600F004F91C
:40224000FB7903F00F03FB73FB7B184600F0FCF81037BD4680BD00BF80B582B000AF4FF4CA737B60554A554B1B78DBB223F07F03DBB21370524B1B78DBB223F00F03FB70B7
:402280004F4AFB7843F00F03DBB213704D4B1B78DBB223F00F03FB704A4AFB7813704A4B1B78DBB223F00F03FB70474AFB781370424A424B1B78DBB223F02003DBB21370A0
:4022C0003E4A3E4B1B78DBB243F04003DBB213700020FFF7D7FE394A384B1B78DBB243F01003DBB213700120FFF7CCFE374B1B78FB70324A314B1B78DBB223F01003DBB294
:4023000013700020FFF7BEFEFB7803F00803FB702A4A2A4B1B78DBB243F01003DBB213700120FFF7AFFE254A244B1B78DBB223F01003DBB21370FB78002B02D10A20FFF784
:40234000A1FE7B68013B7B60FB78002B02D07B68002BBDD1194A194B1B78DBB223F04003DBB21370154A154B1B78DBB223F07F03DBB21370124A124B1B78DBB223F00F03E9
:40238000DBB213700F4B1B78DBB223F00F03FB700C4AFB7843F00F03DBB213700A4B1B78DBB223F00F03FB70074AFB7843F00F03DBB213700837BD4680BD00BF20510040D8
:4023C0002251004023510040245100402151004080B582B000AF0346FB711A4A194B1B78DBB243F02003DBB21370164A154B1B78DBB223F04003DBB213700020FFF742FE5A
:40240000104A104B1B78DBB223F00F03DBB213700C490C4B1B78DAB2FB791343DBB243F01003DBB20B700120FFF72CFE054A054B1B78DBB223F01003DBB213700837BD46AA
:4024400080BD00BF2051004080B582B000AF0346FB71144A134B1B78DBB223F06003DBB21370104A0F4B1B78DBB223F00F03DBB213700C490B4B1B78DAB2FB791343DBB258
:4024800043F01003DBB20B700120FFF7FBFD054A044B1B78DBB223F01003DBB213700837BD4680BD2051004080B500AF054B1B78002B04D100F008F8024B01221A7000F0FA
:4024C00023F880BDA681FF1F80B400AF094B72221A70094B20221A70084B06221A70084B47221A70074B00221A70BD465DF8047B704700BF8C6400408B6400402A64004007
:402500003A6400408D64004080B582B000AFFFF78FFD0346FB71104A0F4B1B78DBB243F02003DBB213700D4A0C4B1B78DBB243F01003DBB213700A4A094B1B78DBB243F0E6
:402540001003DBB2137000F027F8FB791846FFF773FD0837BD4680BD9C6400409B6400409D64004080B483B000AF0346FB7100BF074B1B78DBB203F00403002BF8D1054A79
:40258000FB7913700C37BD465DF8047B704700BF6D6400404D64004080B400AF094A094B1B78DBB243F00103DBB21370064A064B1B78DBB243F00103DBB21370BD465DF841
:4025C000047B7047A2430040B2430040014B1868704700BF8081FF1F0E4B70B51E460E4C0025E41AA410A54204D056F8253098470135F8E701F0E6F8084B094C1E46E41AAC
:40260000A4100025A54204D056F8253098470135F8E770BDD0370000D0370000D0370000D8370000024B0146186800F063B800BF8081FF1F024B0146186800F017B800BF8F
:402640008081FF1F10B5431E0A44914204D011F8014B03F8014FF8E710BD03460244934202D003F8011BFAE77047000030B500293CD051F8042C0B1F1D49002AB8BF9B1878
:402680000A680C4612B95A600B6030BD93420DD219685818904201BF5A5852181A60426823605A6030BD994203D80A4651680029F9D1146815199D420AD11B682344D018F0
:4026C0008842136012D10868034413604B680CE002D90C23036030BD1C681819884201BF08684968001918605960536030BD00BFAC81FF1F70B5CC1C24F0030408340C2CA7
:4027000038BF0C24002C064603DA0C233360002070BD8C42F9D3204A136810461946A1B10A68121B0ED40B2A03D90A608B188C501FE08B420BBF5A684A6802605A6018BF10
:402740000B4616E00B464968E9E7144D2B681BB9304600F0B3F828603046214600F0AEF8421C0346D1D0C51C25F0030585420AD11C6003F10B001A1D20F00700821A0AD045
:402780005142995070BD3046E91A00F097F80130BBD02B46ECE770BDAC81FF1FA881FF1F0FB40A4B13B51C6824B1A36913B9204600F0E8F805AB2046A168049A019300F031
:4027C000A3F902B0BDE8104004B070478081FF1F38B5084B05461C6824B1A36913B9204600F0D0F820462946A268BDE8384000F029BC00BF8081FF1F38B5124B05461C686A
:40280000A36BD3B91820FFF70DFF43F20E33A06303804AF6CD33438041F2342383804EF26D63C3804DF6EC630381052343810B23838101220023C0E90423A36B00221D61ED
:402840005A6138BD8081FF1F194B10B51C68A36BD3B91820FFF7E6FE43F20E33A06303804AF6CD33438041F2342383804EF26D63C3804DF6EC630381052343810B2383811D
:4028800001220023C0E90423A16B0A4C0B6948695C43094A02FB0040A3FB02230132034443F10003C1E9042323F0004010BD00BF8081FF1F2DF451582D7F954C38B5064C73
:4028C0000023054608462360FFF728F9431C02D1236803B12B6038BDB081FF1F13B5084B044669461868002200F0D4F8002803DB00981CB1206001E04FF0FF3002B010BD17
:402900008081FF1F014900F0A7B800BF1134000010B50446002303604360836081814366C28103614361836119465C300822FFF794FE054B24626362044BA362044BE362C6
:40294000044B236310BD00BFBD300000DF300000173100003B31000070B568234D1E5D430E4605F17401FFF7C5FE044640B1002180E842000C30A06005F16802FFF76DFE10
:40298000204670BD836910B5044633BB8364C3640365124B124A1B688262984204BF0123836100F01FF86060204600F01BF8A060204600F017F80421E06000226068FFF786
:4029C000A7FFA06809210122FFF7A2FFE06812210222FFF79DFF0123A36110BD2C37000005290000F8B51B4B07461E68B36913B93046FFF7C7FF4836B4687368013B04D405
:402A0000B4F90C5075B16834F8E733682BB938460421FFF7A1FF306008B13668ECE70C233B60F8BD4FF6FF73E3810123A38165662560A560656025616561A56104F15C00DB
:402A400029460822FFF709FE6563A563A564E5642046F8BD2C3700002DE9F8438046894600F14804002694B1A5686768013F0CD4AB89012B07D9B5F90E30013303D04046DD
:402A80002946C84706436835F0E72468EBE73046BDE8F88338B5074C0023054608461146236000F08FFD431C02D1236803B12B6038BD00BFB081FF1F936810B5013B002B6F
:402AC000936009DA9469A34202DBCBB20A2B03D1BDE8104000F036BB1368581C10601970C8B210BDF8B506460F461446D518AC4208D0304614F8011B3A46FFF7DDFF431C0C
:402B0000F5D100E00020F8BD2DE9F0439DB00D4690460393064618B183690BB9FFF732FF754B9D4201D1756808E0744B9D4201D1B56803E0724B9D4208BFF568AB891C071C
:402B40000AD52B6943B10023099320238DF8293030238DF82A3041E03046294600F058FB0028F0D04FF0FF30C2E0039A0134111D12680391002ABBBF524243F00203079284
:402B80000792B8BF049323782E2B7BD0DFF8808121784046032200F0C3FC38B1049AC8EB00004023834013430493013421785548062204F101088DF8281000F0B1FC002804
:402BC00000F08580504B002B78D1039B073323F0070308330393099B3B44099343461C4613F8012B1AB9B4EB08090ED002E0252AF5D1F8E73046294642464B46FFF772FF8E
:402C0000013070D0099B4B4409932378002B6AD000234FF0FF3204930793059206938DF853301A9304F101084446DFF8E89021784846052200F074FC08F10108049B30B1A4
:402C4000C9EB00000122824013430493ECE7D80644BF20228DF85320190744BF2B228DF8532022782A2A80D0234607991C4622780133303A092A03D80A2000FB0121F5E766
:402C8000079180E763782A2B0AD1039B02341A1D1B680392002BB8BF4FF0FF33059375E7611C00220C4623780131303B092B03D80A2000FB0232F5E7059267E703AB00934D
:402CC000304604A92A46114BAFF3008007E003AB0093304604A92A460C4B00F093F8421C07467FF478AFAB895B063FF53BAF09981DB0BDE8F08300BF30370000503700000B
:402D0000703700009A37000000000000E52A000096370000903700002DE9F84391461F468A680B6906469342B8BF1346C9F8003091F843200C46DDF8208012B10133C9F838
:402D400000302368990642BFD9F800300233C9F80030256815F006051CD094F843302268003318BF012392061FD5E118302081F843005A1C94F845102244023382F8431041
:402D800013E03046394604F119020123C047013007D00135E368D9F800209B1A9D42F0DBDBE74FF0FF30BDE8F8833046394604F14302C0470130F4D02268D9F80050E368A6
:402DC00002F00602042A08BF5D1B2269A3680CBF25EAE57500259342C4BF9B1AED184FF00009A9450ADA3046394604F11A020123C0470130D5D009F10109F2E70020BDE8A8
:402E0000F88300002DE9FF410C461746227E98466E2A06460A9B01F1430100F0B08012D8632A23D00AD8002A00F0BD80582A40F0CC8084F84520DFF804E257E0642A1ED0C3
:402E4000692A1CD0C1E0732A00F0B18009D86F2A2ED0702A40F0B980226842F0200222603FE0752A24D0782A3BD0AEE01A6804F14205111D1960136884F84230A9E02068CD
:402E80001A6810F0800F02D0101D186008E010F0400F02F10400186002D0B2F9003000E01368002B3EDA2D225B4284F8432039E020681A6810F0800F02D0101D186007E0BE
:402EC00010F0400F02F10400186001D0138800E01368227EDFF864E16F2A0CBF08220A221CE07822DFF858E184F845202268186812F0800F00F104051D6003D1550601D539
:402F0000038800E00368D00744BF42F0200222601BB9226822F0200222601022002084F8430002E0DFF814E10A226568002DA8BF2068A560A4BF20F00400206003B965B155
:402F40000D46B3FBF2F002FB10331EF8033005F8013D03460028F4D100E00D46082A0BD12368DA0708D5236962689A42DEBF302305F8013C05F1FF35491B21612EE02568E3
:402F80001A6815F0800F606903D0151D1D60136808E015F0400F02F104051D60136801D0188000E01860002323610D4616E01A68111D1960156800212846626800F0B0FABB
:402FC00008B1401B6060636804E004F1420584F8422001232361002384F84330CDF800803046214603AA3B46FFF796FE013002D14FF0FF301FE0304639462A462369C04737
:403000000130F5D023689B0705D4E068039B9842B8BF18460FE00025E368039A9B1A9D42F3DA3046394604F119020123C0470130DED00135F0E704B0BDE8F081A1370000E4
:40304000B237000070B50E461446054618B183690BB9FFF797FC164B9C4201D16C6808E0144B9C4201D1AC6803E0134B9C4208BFEC68A368013B002BA36011DAA2699342DD
:4030800007DB23681E70236819780A290BD1284601E0284631462246BDE8704000F052B823681E7023685A1C2260187870BD00BF30370000503700007037000010B50C463B
:4030C000B1F90E1000F03AFA0028ABBF636DA3891B1823F48053ACBF6365A38110BD2DE9F0411D468B890746DB050C46164605D5B1F90E100022022300F0B4F9A38938464C
:4031000023F48053A381B4F90E1032462B46BDE8F04100F06BB810B50C46B1F90E1000F0A1F9431CA38915BF606523F4805343F48053A38118BFA38110BDB1F90E1000F0BF
:40314000D3B8000070B50D461446064618B183690BB9FFF717FC224B9C4201D1746808E0204B9C4201D1B46803E01F4B9C4208BFF468A369A360A3891A0709D523693BB10C
:4031800023682069EDB2181A636998420FDB08E03046214600F03CF80028F1D04FF0FF3070BD3046214600F033F90028F6D1A3680130013BA36023685A1C22601D706369EE
:4031C000984204D0A389DB0707D50A2D05D13046214600F01DF90028E0D1284670BD00BF30370000503700007037000038B5074C054600202060084611461A4600F002FA63
:40320000431C02D1236803B12B6038BDB081FF1F314B70B51D6806460C4625B1AB6913B92846FFF7AFFB2D4B9C4201D16C6808E02B4B9C4201D1AC6803E02A4B9C4208BFAB
:40324000EC68A3899AB211071DD4D50602D40922326038E0500712D5616B41B104F14403994202D03046FFF701FA00236363A38923F02403A3810023636023692360A38913
:4032800043F00803A38123694BB9A38903F42073B3F5007F03D03046214600F0F5F8A38913F0010205D00022A26062695242A26103E0990758BF6269A26022694AB903F03D
:4032C000800080B230B143F04003A3814FF0FF3070BD002070BD00BF8081FF1F30370000503700007037000038B5064C002305460846236000F056F9431C02D1236803B118
:403300002B6038BDB081FF1F8A892DE9F041054610070C4657D44B68002B02DC0B6C002B18DDE66AB6B102F48052002392B22F682B600AB1626D10E0216A28460123B0479C
:40334000411C024609D12B683BB11D2B01D0162B46D12F600020BDE8F081A3895B0705D56368D21A636B0BB1236CD21AE66A00232846216AB047461CA38905D12A681AB1D1
:403380001D2A01D0162A19D1002262602269D904226004D5421C01D12B6803B96065616B2F600029D6D004F14403994202D02846FFF75CF900206063BDE8F08143F04003A5
:4033C000A381BDE8F0810F69002FC3D093070E680CBF4B690023C7EB06080F608B6012E0A3894FF0FF3043F04003A381BDE8F0812846216A3A464346A66AB0470028EFDD54
:403400000744C0EB0808B8F1000FF1DCA2E7000038B50B6905460C46DBB118B183690BB9FFF7B0FA0C4B9C4201D16C6808E00B4B9C4201D1AC6803E0094B9C4208BFEC68C8
:40344000B4F90C302BB128462146BDE83840FFF75BBF002038BD00BF30370000503700007037000038B5074C054600202060084611461A4600F0B6F8431C02D1236803B1DD
:403480002B6038BDB081FF1FF0B58B8991B09D0706460C4625D4B1F90E10002908DAA389002513F0800F14BF40274FF480670DE001AA00F055F80028F1DB029D4FF480675C
:4034C00005F47045A5F500514D424D4130463946FFF710F960B9A3899A051DD443F00203A38104F14703236023610123636113E00A4BB362A389206043F08003A38120615F
:4035000067614DB13046B4F90E1000F03BF818B1A38943F00103A38111B0F0BD0529000010B5C9B202449042034605D01C7801308C42F8D1184610BD002010BD38B5074C4B
:40354000054600202060084611461A4600F052F8431C02D1236803B12B6038BDB081FF1F38B5074C0023054608461146236000F021F8431C02D1236803B12B6038BD00BF52
:40358000B081FF1F38B5064C002305460846236000F020F8431C02D1236803B12B6038BDB081FF1F024B58221A604FF0FF307047B081FF1F024B58221A604FF0FF307047DB
:4035C000B081FF1F024B58221A604FF0FF307047B081FF1F024B58221A600020704700BFB081FF1F024B58221A604FF0FF307047B081FF1F024B58221A604FF0FF30704786
:40360000B081FF1F024B58221A604FF0FF307047B081FF1F0000000047414D45204F5645522100000A4F7574206F6620626F756E6473202569202569202569000A506F73C7
:403640006974696F6E20616C7265616479206F63637570696564202569202569202569000A456E746572206120706F736974696F6E3A200025730000456E746572656420B8
:40368000256920256920256900000000256920000A4166746572207475726E20256920706C617965722025690A0000000A506C617965722025690000506C617965722025A3
:4036C000692068617320776F6E0000000A506C617965722025692067726964206576616C0A000000005100402000405100402000F0510040100000000140800A000B01408A
:40370000000500140140000800400140000A004C014000020050014020000000800A01409002004880000000430000002081FF1F0000000000000000000000000000000035
:403740000000000000000000000000000000000000000000000000000000000000000000000000000000000000000000000000000000000000000000000000000000000049
:4037800000000000000000000000000000000000232D302B2000686C4C006566674546470030313233343536373839414243444546003031323334353637383961626364E1
:4037C00065660000F8B500BFF8BC08BC9E4670474D000000091C0000F8B500BFF8BC08BC9E46704729000000F83700000881FF1F800000003000000000000000B881FF1F88
:4038000000366E01C05D0000180000000000E02E000000003037000050370000703700000000000000000000000000000000000028370000000000000000000000000000AC
:403840000000000000000000000000000000000000000000000000000000000000000000000000000000000000000000000000002081FF1F00000000000000000000000089
:403880000000000000000000000000000000000000000000000000000000000000000000000000000000000000000000000000000000000000000000000000000000000008
:4038C00000000000000000000000000000000000000000000000000000000000000000000000000000000000000000000000000000000000000000000000000000000000C8
:403900000000000000000000000000000000000000000000000000000000000000000000000000000000000000000000000000000000000000000000000000000000000087
:403940000000000000000000000000000000000000000000000000000000000000000000000000000000000000000000000000000000000000000000000000000000000047
:020000040003F7
:0200000480007A
:400000000152004003640040010301400105014003090140340A01404F0B0140490C01403B0D014003400140044101400342014004440140054501400350014001510140A9
:4000400034018B388C728D0FE602E608B084B220B340000902D004DC0622075508140C0C0E711173130C15801620192A1A031B441C101D031EAC1F4420102173224023043A
:400080002F0830E0310F3330341F3540378039083A023B023F544003454049FF4A074BFF4C404D204EF04F055008580459045A045F01604061A862406320002003A20401ED
:4000C0000550072009080A0A0D080E400F09128014011502162819021A081B021D501E401FA4200A21052201240225402614274029422D022F40308031103205341436149E
:40010000370138083E1541044522460847444A804B014C014F085004510856405E026402660267088602900192159502978098039B259C949E40A090A122A201A401A548D6
:40014000B510B680C0FFC2F7C4F8CA09CCEFCEE2D0F2D210D680D8B00144040C05E70718080409180C1F0E200FE3103F11FF140315C0183319081A0C1C011D1C1FE1211054
:40018000222324022580281C293C2A232BC22C082F0431C03210331F340F3538362C3AA23B083E0456025711580459045B045F01820198029E04AA01B001B202B604BE0569
:4001C000C043C105C5EBC60CC70EC817C9FFCAFFCBFFCEF0CF44D00CD401D604D804DA04DB04DF01E6C0EA40EB0202400560062008020A410B080C050D220E01112014103A
:4002000015101681172019841A401C091D621E202510260127242C102D902E02340535603C083D803EA14109481049014B80508052805304588059155E2063406E146F016B
:4002400075207623874088019201B201C0E8C2F3C4F2CAF0CCF0CEF0D003D208D62FD80133803620CC308620A620A780E6408780A780E61001017B01C008DC018B01A701AF
:40028000B101E001EE0100010C010E01000A00000022405100E740000CE7130000000C00008080002001030E00448031000008001100060011000E004000000040000000C4
:4002C000401880070F603080820020000000040125040300010E0C0005FFFFFF62A0F0410C00000018000400040404040000000100000000000040020010301000101012E0
:40030000000000000000000000000000000000000040400040000000007F7F0000000000FF00000000000000010001000000000000000000000000000000000000000000FE
:40034000000000000000000000000000000000000000000000000000000000000000000000000000000000000000000000000000000000000000000000000000000000007D
:40038000000000000000000000000000000000000000000000000000000000000000000000000000000000000000000000000000000000000000000000000000000000003D
:4003C00000000000000000000000000000000000000000000000000000000000000000000000000000000000000000000000000000000000000000000000000000000000FD
:4004000000000000000000000000000000000000000000000000000000000000000000000000000000000000000000000000000000000000000000000000000000000000BC
:0200000490006A
:0400000000004005B7
:0200000490105A
:04000000BC90ACAF55
:0200000490303A
:02000000DE33ED
:0200000490402A
:4000000000000000000000000000000000000000000000000000000000000000000000000000000000000000000000000000000000000000000000000000000000000000C0
:400040000000000000000000000000000000000000000000000000000000000000000000000000000000000000000000000000000000000000000000000000000000000080
:400080000000000000000000000000000000000000000000000000000000000000000000000000000000000000000000000000000000000000000000000000000000000040
:4000C0000000000000000000000000000000000000000000000000000000000000000000000000000000000000000000000000000000000000000000000000000000000000
:0200000490501A
:0C00000000012E12306900012E290E9C18
:00000001FF