:400000000080002011000000C90C0000C90C000080B500AF024A034B1B68136000F082FEBC760040FA46004010B5054C237833B9044B13B10448AFF300800123237010BDED
:400040008881FF1F0000000000270000084B10B51BB108480849AFF300800848036803B910BD074B002BFBD0BDE81040184700BF00000000002700008C81FF1F0881FF1FF3
:400080000000000080B500AF00F002F880BD00BF90B5ADF22C4D02AF01F034F9012001F0B9F901F04BFB812001F0A6FB07F58A7318463F2100F00AFC07F58A73184600F028
:4000C00095FD3B4618460421032200F07FF807F58A723B4614331046194600F04DFD07F58A7318461A211022302300F047FC07F58A73184600F07AFD50E097F817341846BF
:4001000000F09EFD034687F8173497F817342F2B1CD997F817343F2B18D897F81734303BC7F81834D7F81824254B1340002B03DA013B63F003030133C7F81C34D7F81834AB
:40014000002B00DA03339B10C7F8183401F094FB03461C463B461846D7F81C14D7F81824234600F087F80346002B17D101F084FB0346194607F58A723B460091104619466F
:40018000D7F81C24D7F8183400F040FB07F58A73184600F02BFD0B4801F0FAF83B461B69002BAAD0012001F035F90020002101F0B9F8054801F0ECF807F22447BD4690BDA2
:4001C00003000080042700000827000080B487B000AFF860B9607A60FB68BA681A60FB687A685A607B68032B18D1BB68BA6802FB03F3BA6802FB03F33B6100237B6109E0F4
:40020000FA687B6904339B00134400225A607B6901337B617A693B699A42F1DBFB6801229A60FB6800221A61FB680122DA601C37BD465DF8047B704780B487B000AFF860BD
:40024000B9607A603B603B689A007B6813449A00BB6813447B61FA687B6904339B0013443A6A5A60012318461C37BD465DF8047B704700BF80B487B000AFF860B9607A6035
:400280003B603B689A007B6813449A00BB6813447B61FA687B6904339B0013445B683B613B6918461C37BD465DF8047B704700BF80B586B000AFF860B9607A603B603B6829
:4002C0009A007B6813449A00BB6813447B61BB68002B05DB7B68002B02DB3B68002B07DA1948B9687A683B6801F0B0FB002327E0FB681A68BB689A4209DDFB681A687B6813
:400300009A4204DDFB681A683B689A4207DC0E48B9687A683B6801F099FB002310E0FA687B6904339B0013445B68002B07D00748B9687A683B6801F089FB002300E0012360
:4003400018461837BD4680BD142700002C27000080B483B000AF78607B689B68012B04D17B684FF0FF329A6007E07B689B68B3F1FF3F02D17B6801229A607B68DB685A1CC2
:400380007B68DA600C37BD465DF8047B704700BF80B588B000AF78607B689B688948194601F054FB00237B6184E10023BB6128E00023FB600023FB610CE07868F969BA694D
:4003C0007B69FFF757FF0246FB681344FB60FB690133FB617B681A68FB699A42EDDC7B689B687A68126802FB03F2FB689A4205D17B689A687B681A61012303E2BB69013321
:40040000BB617B681A68BB699A42D1DC0023FB6128E00023FB600023BB610CE07868F969BA697B69FFF726FF0246FB681344FB60BB690133BB617B681A68BB699A42EDDCFB
:400440007B689B687A68126802FB03F2FB689A4205D17B689A687B681A610123D2E1FB690133FB617B681A68FB699A42D1DC0023FB6128E00023FB6000233B610CE0786843
:40048000F9697A693B69FFF7F5FE0246FB681344FB603B6901333B617B681A683B699A42EDDC7B689B687A68126802FB03F2FB689A4205D17B689A687B681A610123A1E1B9
:4004C000FB690133FB617B681A68FB699A42D1DC0023FB6000233B610CE0786879693A693B69FFF7C7FE0246FB681344FB603B6901333B617B681A683B699A42EDDC7B6867
:400500009B687A68126802FB03F2FB689A4205D17B689A687B681A61012373E10023FB6000233B610FE03B69C3F10303786879691A463B69FFF79EFE0246FB681344FB605B
:400540003B6901333B617B681A683B699A42EADC7B689B687A68126802FB03F2FB689A4205D17B689A687B681A6101234AE10023FB6000233B610CE0786839697A693B694F
:40058000FFF778FE0246FB681344FB603B6901333B617B681A683B699A42EDDC7B689B687A68126802FB03F2FB689A4205D17B689A687B681A61012324E10023FB600023FA
:4005C0003B6111E09C2700007B69C3F10303786819467A693B69FFF74DFE0246FB681344FB603B6901333B617B681A683B699A42EADC7B689B687A68126802FB03F2FB68F3
:400600009A4205D17B689A687B681A610123F9E00023FB6000233B610CE0786839693A697B69FFF727FE0246FB681344FB603B6901333B617B681A683B699A42EDDC7B6819
:400640009B687A68126802FB03F2FB689A4205D17B689A687B681A610123D3E00023FB6000233B610FE03B69C3F10303786839691A467B69FFF7FEFD0246FB681344FB605C
:400680003B6901333B617B681A683B699A42EADC7B689B687A68126802FB03F2FB689A4205D17B689A687B681A610123AAE07B6901337B617B681A687B699A423FF775AE6F
:4006C0000023FB6000233B610CE0786839693A693B69FFF7CFFD0246FB681344FB603B6901333B617B681A683B699A42EDDC7B689B687A68126802FB03F2FB689A4205D17E
:400700007B689A687B681A6101237BE00023FB6000233B610FE03B69C3F10303786839691A463B69FFF7A6FD0246FB681344FB603B6901333B617B681A683B699A42EADCD2
:400740007B689B687A68126802FB03F2FB689A4205D17B689A687B681A61012352E00023FB6000233B610EE03B69C3F10303786839693A69FFF77EFD0246FB681344FB601B
:400780003B6901333B617B681A683B699A42EBDC7B689B687A68126802FB03F2FB689A4205D17B689A687B681A6101232AE00023FB6000233B6110E03B69C3F103023B6931
:4007C000C3F1030378683969FFF754FD0246FB681344FB603B6901333B617B681A683B699A42E9DC7B689B687A68126802FB03F2FB689A4205D17B689A687B681A6101234B
:4008000000E0002318462037BD4680BD90B587B002AFF860B9607A603B60B86879683A683B6AFFF745FD0346012B23D1BB689B680093B86879683A683B6AFFF7FDFCB868B4
:40084000FFF7A6FDB868FFF783FD3B6A9A003B6813449A007B68D418B86879683A683B6AFFF708FD0346F86821461A4600F0C0F8012300E0002318461437BD4690BD00BF6D
:4008800080B485B000AF78600023FB600FE00023BB6002E0BB680133BB607B68642202FB03F2BB689A42F5DCFB680133FB607A6813469B0013445B001A46FB689A42E6DC43
:4008C0001437BD465DF8047B704700BF80B485B000AF78600B46FB700023FB6016E00023BB600DE07968FA6813465B001344DB00BA6813440B44FA781A70BB680133BB60B6
:40090000BB68172BEEDDFB680133FB60FB681F2BE5DD1437BD465DF8047B704780B487B000AFF860B9607A603B60BB687B611AE07B683B610EE0F9687A6913465B00134498
:40094000DB003A6913440B4497F824201A703B6901333B617A683B6A1A443B699A42EADC7B6901337B61BA683B681A447B699A42DEDC1C37BD465DF8047B704780B586B07A
:4009800002AFF860B9607A60FB7001230093FB780193F868B9687A680523FFF7BFFFBB68991C7B685A1C06230093FB780193F8680123FFF7B3FFBB68D91C7B68DA1C01239E
:4009C0000093FB780193F8680223FFF7A7FFBB681A1D7B68181DF96813465B001344DB0003440B44FA781A701037BD4680BD00BF80B588B002AFF860B9607A60BB680F2BE5
:400A00001DDCBB68002B1ADBBA68594B1340002B03DA013B63F0030301337B61BA687B69D31A002B00DA03339B103B617B695B0001337B613B695B0001333B6161E0BB68BD
:400A40001F2B1DDCBB68103BBB60BA68484B1340002B03DA013B63F0030301337B61BA687B69D31A002B00DA03339B103B617B695B0001337B613B695B000B333B6140E038
:400A8000BB682F2B1DDCBB68203BBB60BA68384B1340002B03DA013B63F0030301337B61BA687B69D31A002B00DA03339B103B617B695B000D337B613B6902335B003B61E2
:400AC0001FE0BB683F2B1CDCBB68303BBB60BA68274B1340002B03DA013B63F0030301337B61BA687B69D31A002B00DA03339B103B617B695B000D337B613B6907335B002C
:400B00003B617B68002B14D1BA681A4B83FB0231D317C91A0B465B000B44D11ACBB2022200920193F86879693A690223FFF7F6FE1BE07B68012B0AD1022300932A23019302
:400B4000F86879693A690223FFF7E8FE0DE07B68B3F1FF3F09D10223009315230193F86879693A690223FFF7D9FE1837BD4680BD030000805655555580B586B002AF78604D
:400B800039600123009330230193786808210A220123FFF7C3FE01230093302301937868132103220223FFF7B9FE0123009330230193786812210D220323FFF7AFFE002379
:400BC000FB600CE0FB689B003A6813441B687868F9681A46FFF70CFFFB680133FB60FB683F2BEFDD1037BD4680BD00BF80B584B000AF78600023BB6018E00023FB600FE02E
:400C00007968FA6813465B001344DB00BA6813440B441B78184600F0EFFDFB680133FB60FB681F2BECDDBB680133BB60BB68172BE3DD0720FFF724FE1037BD4680BD00BF72
:400C400080B584B000AF0346FB71012000F0E2FB0120002100F066FB184800F099FBFB79184600F0B1FB164800F092FBFB79184600F012FD00F0F4FD0346FB73002000214F
:400C800000F050FB0F4800F083FBFB7B184600F09BFB0B4800F07CFBFB7B184600F0FCFC0520FFF7EDFDFB7B002B01D1FB7900E0FB7B18461037BD4680BD00BFD427000083
:400CC000DC270000E427000080B400AFFEE700BF80B584B000AF7860104B1A687B6813441A460F4BD31AB3F5805F09DC0B4B1B68FB600A4B1A687B681344084A136007E054
:400D000000F0CAFD02460C2313604FF0FF33FB60FB6818461037BD4680BD00BF0C81FF1FB881FF1F80B586B000AF224B7B61224B3B61204B7B6135E03B691B68FB603B694F
:400D40005B68BB603B699B683B6000237B600CE0FB681A68BB681A60BB680433BB60FB680433FB607B6804337B607A683B689A42EED13B69DB683B6000237B6008E0BB68DD
:400D800000221A60BB680433BB607B6804337B607A683B689A42F2D13B6910333B617B69013B7B617B69002BC6D100F07BFDFFF769F9FEE701000000F028000080B582B0BF
:400DC00000AF174B174A1A60174A174B1B6843F40073136000237B600FE07B68032B04D8124A7B6852F8233000E0114B11497A6841F822307B6801337B607B682F2BECD9F7
:400E00000D4B1B78DAB20D4B1A700D4B094A1A6000F022F90B4B00221A600837BD4680BD0CED00E00004FA0514ED00E000000000C90C00000080FF1FBC7600400481FF1F73
:400E400008ED00E00081FF1F80B582B000AF78603960786800213A6800F055FD0837BD4680BD00BF80B584B000AFF860B9607A60F868B9687A6800F03BFD1037BD4680BDDF
:400E800080B483B000AF0346FB71FEE780B487B000AF7860396000233B6100237B6127E07B699B007A6813441B68BB60BB68FB73BB6823F0FF03BB6014E03B695B003A6863
:400EC00013441B781A46BB68134419463B695B003A6813445B780B703B6901333B61FB7B013BFB73FB7B002BE7D17B6901337B617B69102BD4D91C37BD465DF8047B7047FB
:400F000080B582B000AF334B01221A80324B18221A70324B9B221A80314B18221A70314B02221A704FF0402308221A702E4B03221A702E4B2E4A1278D2B21A702D4B082238
:400F40001A802D4B41F251221A800023FB7019237B6014E0FB785B00DAB2284B1B78DBB203F00103DBB21343DBB203F00303FB704FF4F07000F040F97B68013B7B607B6825
:400F8000002B02D0FB78032BE4D17B68002B02D10320FFF775FF1A4B4FF480721A80184B07221A70174B00221A70174B48221A70134B00221A70154B02221A70144A144BED
:400FC0001B78DBB243F00303DBB213700837BD4680BD00BF804000408240004084400040864000400043004000420040A146004008010049224200402042004025420040D3
:4010000004400040064000400840004001400040A243004080B483B000AF0B4B1B78FB710A4AFB7903F00703DBB21370084AFB791B09DBB21370074B44221A700C37BD46B6
:401040005DF8047B704700BFCF0100496E5800406F5800407658004080B586B000AF72B64F4A4F4B1B78DBB243F00403DBB213700023FB7513E0FA7D13465B0013445B00B0
:40108000484A13443B613B691A683B699B889BB210461946FFF7D8FEFB7D0133FB75FB7D082BE8D90023FB751CE0FA7D13469B0013445B003C4A1344FB60FB681B68BB6083
:4010C000FB685B687B60FB681A7A5B7A1B0213437B807B88B86879681A46FFF7C3FEFB7D0133FB75FB7D002BDFD04FF090402F49FFF7CCFE2E4A2E4B1B78DBB243F002039C
:40110000DBB213702B4A2B4B1B78DBB243F00203DBB21370284A284B1B78DBB243F04003DBB21370254A254B1B78DBB243F01003DBB21370224823490822FFF793FE22487B
:4011400022490822FFF78EFE214822490822FFF789FE214821490822FFF784FE204821490A22FFF77FFE204A1F4B1B78DBB243F00803DBB213701D4B01221A70FFF7C0FEEC
:401180001A4B81221A701A4B01221A70FFF742FF184809490E22FFF765FE1837BD4680BDE8460040EC27000024280000440000480350014013500140A0430040C243004091
:4011C0000251004028030048C251004030030048225100403803004832510040400300486051004048030048224300400048004004000840B04300400230800803D000BF1B
:4012000001380046FCD17047EFF3108072B6704780F31088704700BF80B582B000AF786008E00C4B1B681846FFF7E6FF7B68A3F500437B607B68B3F5004FF2D8064B1B68DF
:401240007A6802FB03F31846FFF7D6FF0837BD4680BD00BF1C81FF1F1481FF1F80B582B000AF0346FB80FB88044A127802FB03F31846FFF7C1FF0837BD4680BD1881FF1F52
:4012800080B500AF2820FFF7C7FF032000F0D4F90520FFF7C1FF032000F0CEF90F20FFF7BBFF032000F0C8F90120FFF7B5FF022000F0C2F90520FFF7AFFF062000F0AAF8E5
:4012C0000E2000F0A7F82C2000F0A4F8082000F0A1F8012000F09EF80C2000F09BF8032000F098F80520FFF797FF80BD80B500AF0C2000F08FF8024B01221A7080BD00BF44
:40130000A481FF1F80B500AF054B1B78002B04D1FFF7B6FF024B01221A70FFF7E7FF80BDA581FF1F80B582B000AF03460A46FB711346BB71FB79032B26D801A252F823F061
:40134000511300005F1300006D1300007B130000BB79803BDBB2184600F05CF815E0BB79403BDBB2184600F055F80EE0BB796C3BDBB2184600F04EF807E0BB792C3BDBB2A6
:40138000184600F047F800E000BF0837BD4680BD80B584B000AF78600123FB737B681B78BB730BE0BB7B184600F01AF8FB7B7A6813441B78BB73FB7B0133FB73BB7B002BF2
:4013C000F0D11037BD4680BD80B582B000AF0346FB71FB79184600F003F80837BD4680BD80B584B000AF0346FB7100F02DF8FB791B09FB73FB7B184600F0E2F8FB7903F0B1
:401400000F03FB73FB7B184600F0DAF81037BD4680BD00BF80B584B000AF0346FB7100F013F8FB791B09FB73FB7B184600F004F9FB7903F00F03FB73FB7B184600F0FCF822
:401440001037BD4680BD00BF80B582B000AF4FF4CA737B60554A554B1B78DBB223F07F03DBB21370524B1B78DBB223F00F03FB704F4AFB7843F00F03DBB213704D4B1B78D8
:40148000DBB223F00F03FB704A4AFB7813704A4B1B78DBB223F00F03FB70474AFB781370424A424B1B78DBB223F02003DBB213703E4A3E4B1B78DBB243F04003DBB2137083
:4014C0000020FFF7CBFE394A384B1B78DBB243F01003DBB213700120FFF7C0FE374B1B78FB70324A314B1B78DBB223F01003DBB213700020FFF7B2FEFB7803F00803FB704C
:401500002A4A2A4B1B78DBB243F01003DBB213700120FFF7A3FE254A244B1B78DBB223F01003DBB21370FB78002B02D10A20FFF795FE7B68013B7B60FB78002B02D07B68EF
:40154000002BBDD1194A194B1B78DBB223F04003DBB21370154A154B1B78DBB223F07F03DBB21370124A124B1B78DBB223F00F03DBB213700F4B1B78DBB223F00F03FB70C9
:401580000C4AFB7843F00F03DBB213700A4B1B78DBB223F00F03FB70074AFB7843F00F03DBB213700837BD4680BD00BF205100402251004023510040245100402151004032
:4015C00080B582B000AF0346FB711A4A194B1B78DBB243F02003DBB21370164A154B1B78DBB223F04003DBB213700020FFF736FE104A104B1B78DBB223F00F03DBB2137038
:401600000C490C4B1B78DAB2FB791343DBB243F01003DBB20B700120FFF720FE054A054B1B78DBB223F01003DBB213700837BD4680BD00BF2051004080B582B000AF0346C2
:40164000FB71144A134B1B78DBB223F06003DBB21370104A0F4B1B78DBB223F00F03DBB213700C490B4B1B78DAB2FB791343DBB243F01003DBB20B700120FFF7EFFD054AD2
:40168000044B1B78DBB223F01003DBB213700837BD4680BD2051004080B586B000AF78600A23FB75FB7D07F118021344002203F8102CFB7D013BFB751CE079681E4BA3FB84
:4016C0000123DA0813469B0013445B00CA1AD3B23033BB75FB7D07F118021344BA7D03F8102C7B68144AA2FB0323DB087B60FB7D013BFB757B68092BDFD879680E4BA3FB67
:401700000123DA0813469B0013445B00CA1AD3B23033BB75FB7D07F118021344BA7D03F8102CFB7D07F1080213441846FFF730FE1837BD4680BD00BFCDCCCCCC80B500AFFC
:40174000054B1B78002B04D100F008F8024B01221A7000F023F880BDA681FF1F80B400AF094B72221A70094B20221A70084B06221A70084B47221A70074B00221A70BD464E
:401780005DF8047B704700BF8C6400408D6400402A6400403A6400408A64004080B582B000AFFFF731FD0346FB71104A0F4B1B78DBB243F02003DBB213700D4A0C4B1B783A
:4017C000DBB243F01003DBB213700A4A094B1B78DBB243F01003DBB2137000F027F8FB791846FFF715FD0837BD4680BD9C6400409D6400409A64004080B483B000AF034662
:40180000FB7100BF074B1B78DBB203F00403002BF8D1054AFB7913700C37BD465DF8047B704700BF6A6400404B64004080B400AF094A094B1B78DBB243F00203DBB2137058
:40184000064A064B1B78DBB243F00203DBB21370BD465DF8047B7047A2430040B243004080B400AF034B1B78DBB21846BD465DF8047B70473151004080B400AF054B1B78B2
:40188000DBB203F00303DBB21846BD465DF8047B704700BF01510040014B1868704700BF8081FF1F0E4B70B51E460E4C0025E41AA410A54204D056F8253098470135F8E712
:4018C00001F004F8084B094C1E46E41AA4100025A54204D056F8253098470135F8E770BDD8280000D8280000D8280000E028000010B5431E0A44914204D011F8014B03F826
:40190000014FF8E710BD03460244934202D003F8011BFAE77047000030B500293CD051F8042C0B1F1D49002AB8BF9B180A680C4612B95A600B6030BD93420DD21968581809
:40194000904201BF5A5852181A60426823605A6030BD994203D80A4651680029F9D1146815199D420AD11B682344D0188842136012D10868034413604B680CE002D90C2390
:40198000036030BD1C681819884201BF08684968001918605960536030BD00BFAC81FF1F70B5CC1C24F0030408340C2C38BF0C24002C064603DA0C233360002070BD8C428E
:4019C000F9D3204A136810461946A1B10A68121B0ED40B2A03D90A608B188C501FE08B420BBF5A684A6802605A6018BF0B4616E00B464968E9E7144D2B681BB9304600F070
:401A00003DF828603046214600F038F8421C0346D1D0C51C25F0030585420AD11C6003F10B001A1D20F00700821A0AD05142995070BD3046E91A00F021F80130BBD02B466D
:401A4000ECE770BDAC81FF1FA881FF1F0FB40A4B13B51C6824B1A36913B9204600F05EF805AB2046A168049A019300F007F902B0BDE8104004B070478081FF1F38B5064C66
:401A80000023054608462360FFF722F9431C02D1236803B12B6038BDB081FF1F014900F0A7B800BF0D25000010B50446002303604360836081814366C28103614361836117
:401AC00019465C300822FFF71EFF054B24626362044BA362044BE362044B236310BD00BFB9210000DB210000132200003722000070B568234D1E5D430E4605F17401FFF706
:401B00004FFF044640B1002180E842000C30A06005F16802FFF7F7FE204670BD836910B5044633BB8364C3640365124B124A1B688262984204BF0123836100F01FF860604C
:401B4000204600F01BF8A060204600F017F80421E06000226068FFF7A7FFA06809210122FFF7A2FFE06812210222FFF79DFF0123A36110BD342800009D1A0000F8B51B4B74
:401B800007461E68B36913B93046FFF7C7FF4836B4687368013B04D4B4F90C5075B16834F8E733682BB938460421FFF7A1FF306008B13668ECE70C233B60F8BD4FF6FF735D
:401BC000E3810123A38165662560A560656025616561A56104F15C0029460822FFF793FE6563A563A564E5642046F8BD342800002DE9F8438046894600F14804002694B135
:401C0000A5686768013F0CD4AB89012B07D9B5F90E30013303D040462946C84706436835F0E72468EBE73046BDE8F883936810B5013B002B936009DA9469A34202DBCBB287
:401C40000A2B03D1BDE8104000F0FABA1368581C10601970C8B210BDF8B506460F461446D518AC4208D0304614F8011B3A46FFF7DDFF431CF5D100E00020F8BD2DE9F04325
:401C80009DB00D4690460393064618B183690BB9FFF744FF754B9D4201D1756808E0744B9D4201D1B56803E0724B9D4208BFF568AB891C070AD52B6943B1002309932023F4
:401CC0008DF8293030238DF82A3041E03046294600F01CFB0028F0D04FF0FF30C2E0039A0134111D12680391002ABBBF524243F0020307920792B8BF049323782E2B7BD0D2
:401D0000DFF8808121784046032200F087FC38B1049AC8EB00004023834013430493013421785548062204F101088DF8281000F075FC002800F08580504B002B78D1039B4E
:401D4000073323F0070308330393099B3B44099343461C4613F8012B1AB9B4EB08090ED002E0252AF5D1F8E73046294642464B46FFF772FF013070D0099B4B4409932378E3
:401D8000002B6AD000234FF0FF3204930793059206938DF853301A9304F101084446DFF8E89021784846052200F038FC08F10108049B30B1C9EB00000122824013430493C4
:401DC000ECE7D80644BF20228DF85320190744BF2B228DF8532022782A2A80D0234607991C4622780133303A092A03D80A2000FB0121F5E7079180E763782A2B0AD1039BD3
:401E000002341A1D1B680392002BB8BF4FF0FF33059375E7611C00220C4623780131303B092B03D80A2000FB0232F5E7059267E703AB0093304604A92A46114BAFF3008072
:401E400007E003AB0093304604A92A460C4B00F093F8421C07467FF478AFAB895B063FF53BAF09981DB0BDE8F08300BF382800005828000078280000A2280000000000004E
:401E8000591C00009E280000982800002DE9F84391461F468A680B6906469342B8BF1346C9F8003091F843200C46DDF8208012B10133C9F800302368990642BFD9F800308B
:401EC0000233C9F80030256815F006051CD094F843302268003318BF012392061FD5E118302081F843005A1C94F845102244023382F8431013E03046394604F11902012310
:401F0000C047013007D00135E368D9F800209B1A9D42F0DBDBE74FF0FF30BDE8F8833046394604F14302C0470130F4D02268D9F80050E36802F00602042A08BF5D1B22695E
:401F4000A3680CBF25EAE57500259342C4BF9B1AED184FF00009A9450ADA3046394604F11A020123C0470130D5D009F10109F2E70020BDE8F88300002DE9FF410C461746A8
:401F8000227E98466E2A06460A9B01F1430100F0B08012D8632A23D00AD8002A00F0BD80582A40F0CC8084F84520DFF804E257E0642A1ED0692A1CD0C1E0732A00F0B180F4
:401FC00009D86F2A2ED0702A40F0B980226842F0200222603FE0752A24D0782A3BD0AEE01A6804F14205111D1960136884F84230A9E020681A6810F0800F02D0101D1860B2
:4020000008E010F0400F02F10400186002D0B2F9003000E01368002B3EDA2D225B4284F8432039E020681A6810F0800F02D0101D186007E010F0400F02F10400186001D045
:40204000138800E01368227EDFF864E16F2A0CBF08220A221CE07822DFF858E184F845202268186812F0800F00F104051D6003D1550601D5038800E00368D00744BF42F074
:40208000200222601BB9226822F0200222601022002084F8430002E0DFF814E10A226568002DA8BF2068A560A4BF20F00400206003B965B10D46B3FBF2F002FB10331EF88D
:4020C000033005F8013D03460028F4D100E00D46082A0BD12368DA0708D5236962689A42DEBF302305F8013C05F1FF35491B21612EE025681A6815F0800F606903D0151DC7
:402100001D60136808E015F0400F02F104051D60136801D0188000E01860002323610D4616E01A68111D1960156800212846626800F074FA08B1401B6060636804E004F1F1
:40214000420584F8422001232361002384F84330CDF800803046214603AA3B46FFF796FE013002D14FF0FF301FE0304639462A462369C0470130F5D023689B0705D4E068F9
:40218000039B9842B8BF18460FE00025E368039A9B1A9D42F3DA3046394604F119020123C0470130DED00135F0E704B0BDE8F081A9280000BA28000010B50C46B1F90E10FD
:4021C00000F03AFA0028ABBF636DA3891B1823F48053ACBF6365A38110BD2DE9F0411D468B890746DB050C46164605D5B1F90E100022022300F0B4F9A389384623F4805339
:40220000A381B4F90E1032462B46BDE8F04100F06BB810B50C46B1F90E1000F0A1F9431CA38915BF606523F4805343F48053A38118BFA38110BDB1F90E1000F0D3B800002D
:4022400070B50D461446064618B183690BB9FFF765FC224B9C4201D1746808E0204B9C4201D1B46803E01F4B9C4208BFF468A369A360A3891A0709D523693BB12368206944
:40228000EDB2181A636998420FDB08E03046214600F03CF80028F1D04FF0FF3070BD3046214600F033F90028F6D1A3680130013BA36023685A1C22601D706369984204D063
:4022C000A389DB0707D50A2D05D13046214600F01DF90028E0D1284670BD00BF38280000582800007828000038B5074C054600202060084611461A4600F0FAF9431C02D10C
:40230000236803B12B6038BDB081FF1F314B70B51D6806460C4625B1AB6913B92846FFF7FDFB2D4B9C4201D16C6808E02B4B9C4201D1AC6803E02A4B9C4208BFEC68A3891E
:402340009AB211071DD4D50602D40922326038E0500712D5616B41B104F14403994202D03046FFF7D9FA00236363A38923F02403A3810023636023692360A38943F008038C
:40238000A38123694BB9A38903F42073B3F5007F03D03046214600F0F5F8A38913F0010205D00022A26062695242A26103E0990758BF6269A26022694AB903F0800080B2D8
:4023C00030B143F04003A3814FF0FF3070BD002070BD00BF8081FF1F38280000582800007828000038B5064C002305460846236000F056F9431C02D1236803B12B6038BD6E
:40240000B081FF1F8A892DE9F041054610070C4657D44B68002B02DC0B6C002B18DDE66AB6B102F48052002392B22F682B600AB1626D10E0216A28460123B047411C024686
:4024400009D12B683BB11D2B01D0162B46D12F600020BDE8F081A3895B0705D56368D21A636B0BB1236CD21AE66A00232846216AB047461CA38905D12A681AB11D2A01D06D
:40248000162A19D1002262602269D904226004D5421C01D12B6803B96065616B2F600029D6D004F14403994202D02846FFF734FA00206063BDE8F08143F04003A381BDE82A
:4024C000F0810F69002FC3D093070E680CBF4B690023C7EB06080F608B6012E0A3894FF0FF3043F04003A381BDE8F0812846216A3A464346A66AB0470028EFDD0744C0EB36
:402500000808B8F1000FF1DCA2E7000038B50B6905460C46DBB118B183690BB9FFF7FEFA0C4B9C4201D16C6808E00B4B9C4201D1AC6803E0094B9C4208BFEC68B4F90C3096
:402540002BB128462146BDE83840FFF75BBF002038BD00BF38280000582800007828000038B5074C054600202060084611461A4600F0AEF8431C02D1236803B12B6038BD72
:40258000B081FF1FF0B58B8991B09D0706460C4625D4B1F90E10002908DAA389002513F0800F14BF40274FF480670DE001AA00F055F80028F1DB029D4FF4806705F470453D
:4025C000A5F500514D424D4130463946FFF7E8F960B9A3899A051DD443F00203A38104F14703236023610123636113E00A4BB362A389206043F08003A381206167614DB17E
:402600003046B4F90E1000F03BF818B1A38943F00103A38111B0F0BD9D1A000010B5C9B202449042034605D01C7801308C42F8D1184610BD002010BD38B5074C054600202C
:402640002060084611461A4600F04AF8431C02D1236803B12B6038BDB081FF1F38B5074C0023054608461146236000F021F8431C02D1236803B12B6038BD00BFB081FF1F85
:4026800038B5064C002305460846236000F018F8431C02D1236803B12B6038BDB081FF1F024B58221A604FF0FF307047B081FF1F024B58221A604FF0FF307047B081FF1FF2
:4026C000024B58221A600020704700BFB081FF1F024B58221A604FF0FF307047B081FF1F024B58221A604FF0FF307047B081FF1F024B58221A604FF0FF307047B081FF1F95
:40270000000000004855000047414D45204F5645522100000A4F7574206F6620626F756E6473202569202569202569000A506F736974696F6E20616C7265616479206F6326
:40274000637570696564202569202569202569000A456E746572206120706F736974696F6E3A200025730000456E7465726564202569202569202569000000002569200046
:402780000A4166746572207475726E20256920706C617965722025690A0000000A506C617965722025690000506C617965722025692068617320776F6E0000000A506C61EA
:4027C0007965722025692067726964206576616C0A0000004C4153543A000000204845583A200000435552523A000000105100401000405100402000F051004010000000CD
:402800000140000C800C0140800300140140000800400140000A004C014000020050014020000000000C0140A802004880000000430000002081FF1F000000000000000012
:402840000000000000000000000000000000000000000000000000000000000000000000000000000000000000000000000000000000000000000000000000000000000058
:40288000000000000000000000000000000000000000000000000000232D302B2000686C4C0065666745464700303132333435363738394142434445460030313233343558
:4028C000363738396162636465660000F8B500BFF8BC08BC9E4670474D000000BD0D0000F8B500BFF8BC08BC9E46704729000000002900000881FF1F8000000030000000E7
:4029000000000000B881FF1F00366E01C05D0000180000000000E02E0000000038280000582800007828000000000000000000000000000000000000302800000000000080
:4029400000000000000000000000000000000000000000000000000000000000000000000000000000000000000000000000000000000000000000002081FF1F0000000098
:402980000000000000000000000000000000000000000000000000000000000000000000000000000000000000000000000000000000000000000000000000000000000017
:4029C00000000000000000000000000000000000000000000000000000000000000000000000000000000000000000000000000000000000000000000000000000000000D7
:402A00000000000000000000000000000000000000000000000000000000000000000000000000000000000000000000000000000000000000000000000000000000000096
:402A40000000000000000000000000000000000000000000000000000000000000000000000000000000000000000000000000000000000000000000000000000000000056
:020000040003F7
:0200000480007A
:4000000001520040036400400103014001050140020901406F0A01404D0B0140190C01403E0D014003400140044101400342014004440140034501400246014003500140AA
:400040000151014034018A0F8C728D38E602E204B510B701000902D0075509030A030B440C0C0E711010124014DC15801622181019731AAC1B0C1F08217323042414292A9E
:400080002A202B4430E031403330341F350F378039083A023B203F454003474049FF4A074BFF4C404D204EF04F05500854015604580459045A045B045C115D115F01604069
:4000C00061A8624063208011820E8420850F86038880890F8A408C408D088E80940C9613981199019A069B069E0CA208A4C0A504A701A8C0AD02AF01B108B20FB307B4C0D2
:40010000B630B880BA08BB20C026C104C50CC6CEC70BC81DC9FFCAFFCBFFCEF0CF44D00CD804D904DA04DC11DD01DF01E6C0EA40EB0201200382040805110601092A0D28FF
:400140000E02110812081502171419211A081B021C041D181E021FA82002212423802420251026022720284029012B082D802F20312032043380372038083A103E544104A0
:40018000444045204C044E1050045103520855045650580159045A205B806380640166408340840192549424970199849A019B149E40A510A602C0FBC2EEC476CA55CC2ED0
:4001C000CE76D0A2D220D60FD801E4088008830186028E02920494019A01A201A604A801B001B208B402B604B701B802BE54D418D604D804D904DB04DC11DD10DF01024014
:4002000003220424050309290C120D200E200F01106011201601172A180119141B021D891E281F042280252127012C502D822F04368237283A013C043D203E023F80459909
:400240004C224E0257205B015E086001611063406E546F147602772A87408C108F4099809A01B580B601C07DC2FEC4FECAF0CCF0CEF1D0F0D210D641D80D32203580CC304D
:4002800086209D80A620E64081809D80E22000047840C008DC019C40B404EE0284409C4000020C020E02000A1F1020000280800003FF400000C00000000023E333080C0020
:4002C0001C1823003F000004081C00E1043C00C20CE70018014480002C380F00101FC0C000000A200000500035020400010CE00009FFFFFF62A0F0410C0000000000021270
:400300000404040411110001000000000000400200103010001010120000000000000000000000000000000003000000000000000040400040000000007F7F000000000005
:40034000FF0000000000000001004100000000000000000000000000000000000000000000000000000000000000000000000000000000000000000000000000000000003C
:40038000000000000000000000000000000000000000000000000000000000000000000000000000000000000000000000000000000000000000000000000000000000003D
:4003C00000000000000000000000000000000000000000000000000000000000000000000000000000000000000000000000000000000000000000000000000000000000FD
:4004000000000000000000000000000000000000000000000000000000000000000000000000000000000000000000000000000000000000000000000000000000000000BC
:40044000000000000000000000000000000000000000000000000000000000000000000000000000000000000000000000000000000000000000000000000000000000007C
:0200000490006A
:0400000000004005B7
:0200000490105A
:04000000BC90ACAF55
:0200000490303A
:02000000C2C478
:0200000490402A
:4000000000000000000000000000000000000000000000000000000000000000000000000000000000000000000000000000000000000000000000000000000000000000C0
:400040000000000000000000000000000000000000000000000000000000000000000000000000000000000000000000000000000000000000000000000000000000000080
:400080000000000000000000000000000000000000000000000000000000000000000000000000000000000000000000000000000000000000000000000000000000000040
:4000C0000000000000000000000000000000000000000000000000000000000000000000000000000000000000000000000000000000000000000000000000000000000000
:0200000490501A
:0C00000000012E12306900012E22F32DA9
:00000001FF