:03000000020100FA
:03000300020105F2
:0300130002011FC8
:1001000012015D80FE1201BA0A0D43415020544F86
:1001100055434845440074361201B2120158321258
:1001200001BA0A0D48550020901220911420921512
:10013000209316209417E590243080157431328076
:10014000107432800C7433800874348004743580E9
:10015000001201B21201583290FE30F0227589204F
:10016000758840758DFD75985090FE337480F090C1
:10017000FE307480F090FE137436F090FE107423FD
:10018000F07401F075900FD288D28A75A8857A0034
:100190007B202230B3FDE59012019F20B3FD2204A5
:1001A0008322000102030405060708090A0B0C0D4F
:1001B0000E0FC299F5993099FD22D083D082E49335
:0E01C000B4000280061201B2A380F374017332
:00000001FF
